{
  "_format": "hh-sol-artifact-1",
  "contractName": "NFTmint",
  "sourceName": "contracts/NFTmint.sol",
  "abi": [
    {
      "inputs": [],
      "stateMutability": "nonpayable",
      "type": "constructor"
    },
    {
      "anonymous": false,
      "inputs": [
        {
          "indexed": true,
          "internalType": "address",
          "name": "owner",
          "type": "address"
        },
        {
          "indexed": true,
          "internalType": "address",
          "name": "approved",
          "type": "address"
        },
        {
          "indexed": true,
          "internalType": "uint256",
          "name": "tokenId",
          "type": "uint256"
        }
      ],
      "name": "Approval",
      "type": "event"
    },
    {
      "anonymous": false,
      "inputs": [
        {
          "indexed": true,
          "internalType": "address",
          "name": "owner",
          "type": "address"
        },
        {
          "indexed": true,
          "internalType": "address",
          "name": "operator",
          "type": "address"
        },
        {
          "indexed": false,
          "internalType": "bool",
          "name": "approved",
          "type": "bool"
        }
      ],
      "name": "ApprovalForAll",
      "type": "event"
    },
    {
      "anonymous": false,
      "inputs": [
        {
          "indexed": true,
          "internalType": "address",
          "name": "previousOwner",
          "type": "address"
        },
        {
          "indexed": true,
          "internalType": "address",
          "name": "newOwner",
          "type": "address"
        }
      ],
      "name": "OwnershipTransferred",
      "type": "event"
    },
    {
      "anonymous": false,
      "inputs": [
        {
          "indexed": true,
          "internalType": "address",
          "name": "from",
          "type": "address"
        },
        {
          "indexed": true,
          "internalType": "address",
          "name": "to",
          "type": "address"
        },
        {
          "indexed": true,
          "internalType": "uint256",
          "name": "tokenId",
          "type": "uint256"
        }
      ],
      "name": "Transfer",
      "type": "event"
    },
    {
      "inputs": [
        {
          "internalType": "address",
          "name": "to",
          "type": "address"
        },
        {
          "internalType": "uint256",
          "name": "tokenId",
          "type": "uint256"
        }
      ],
      "name": "approve",
      "outputs": [],
      "stateMutability": "nonpayable",
      "type": "function"
    },
    {
      "inputs": [
        {
          "internalType": "address",
          "name": "owner",
          "type": "address"
        }
      ],
      "name": "balanceOf",
      "outputs": [
        {
          "internalType": "uint256",
          "name": "",
          "type": "uint256"
        }
      ],
      "stateMutability": "view",
      "type": "function"
    },
    {
      "inputs": [
        {
          "internalType": "uint256",
          "name": "tokenId",
          "type": "uint256"
        }
      ],
      "name": "getApproved",
      "outputs": [
        {
          "internalType": "address",
          "name": "",
          "type": "address"
        }
      ],
      "stateMutability": "view",
      "type": "function"
    },
    {
      "inputs": [
        {
          "internalType": "address",
          "name": "owner",
          "type": "address"
        },
        {
          "internalType": "address",
          "name": "operator",
          "type": "address"
        }
      ],
      "name": "isApprovedForAll",
      "outputs": [
        {
          "internalType": "bool",
          "name": "",
          "type": "bool"
        }
      ],
      "stateMutability": "view",
      "type": "function"
    },
    {
      "inputs": [],
      "name": "name",
      "outputs": [
        {
          "internalType": "string",
          "name": "",
          "type": "string"
        }
      ],
      "stateMutability": "view",
      "type": "function"
    },
    {
      "inputs": [],
      "name": "owner",
      "outputs": [
        {
          "internalType": "address",
          "name": "",
          "type": "address"
        }
      ],
      "stateMutability": "view",
      "type": "function"
    },
    {
      "inputs": [
        {
          "internalType": "uint256",
          "name": "tokenId",
          "type": "uint256"
        }
      ],
      "name": "ownerOf",
      "outputs": [
        {
          "internalType": "address",
          "name": "",
          "type": "address"
        }
      ],
      "stateMutability": "view",
      "type": "function"
    },
    {
      "inputs": [],
      "name": "renounceOwnership",
      "outputs": [],
      "stateMutability": "nonpayable",
      "type": "function"
    },
    {
      "inputs": [
        {
          "internalType": "string",
          "name": "uri",
          "type": "string"
        }
      ],
      "name": "safeMint",
      "outputs": [],
      "stateMutability": "nonpayable",
      "type": "function"
    },
    {
      "inputs": [
        {
          "internalType": "address",
          "name": "from",
          "type": "address"
        },
        {
          "internalType": "address",
          "name": "to",
          "type": "address"
        },
        {
          "internalType": "uint256",
          "name": "tokenId",
          "type": "uint256"
        }
      ],
      "name": "safeTransferFrom",
      "outputs": [],
      "stateMutability": "nonpayable",
      "type": "function"
    },
    {
      "inputs": [
        {
          "internalType": "address",
          "name": "from",
          "type": "address"
        },
        {
          "internalType": "address",
          "name": "to",
          "type": "address"
        },
        {
          "internalType": "uint256",
          "name": "tokenId",
          "type": "uint256"
        },
        {
          "internalType": "bytes",
          "name": "data",
          "type": "bytes"
        }
      ],
      "name": "safeTransferFrom",
      "outputs": [],
      "stateMutability": "nonpayable",
      "type": "function"
    },
    {
      "inputs": [
        {
          "internalType": "address",
          "name": "operator",
          "type": "address"
        },
        {
          "internalType": "bool",
          "name": "approved",
          "type": "bool"
        }
      ],
      "name": "setApprovalForAll",
      "outputs": [],
      "stateMutability": "nonpayable",
      "type": "function"
    },
    {
      "inputs": [
        {
          "internalType": "bytes4",
          "name": "interfaceId",
          "type": "bytes4"
        }
      ],
      "name": "supportsInterface",
      "outputs": [
        {
          "internalType": "bool",
          "name": "",
          "type": "bool"
        }
      ],
      "stateMutability": "view",
      "type": "function"
    },
    {
      "inputs": [],
      "name": "symbol",
      "outputs": [
        {
          "internalType": "string",
          "name": "",
          "type": "string"
        }
      ],
      "stateMutability": "view",
      "type": "function"
    },
    {
      "inputs": [
        {
          "internalType": "uint256",
          "name": "tokenId",
          "type": "uint256"
        }
      ],
      "name": "tokenURI",
      "outputs": [
        {
          "internalType": "string",
          "name": "",
          "type": "string"
        }
      ],
      "stateMutability": "view",
      "type": "function"
    },
    {
      "inputs": [],
      "name": "totalSupply",
      "outputs": [
        {
          "internalType": "uint256",
          "name": "",
          "type": "uint256"
        }
      ],
      "stateMutability": "view",
      "type": "function"
    },
    {
      "inputs": [
        {
          "internalType": "address",
          "name": "from",
          "type": "address"
        },
        {
          "internalType": "address",
          "name": "to",
          "type": "address"
        },
        {
          "internalType": "uint256",
          "name": "tokenId",
          "type": "uint256"
        }
      ],
      "name": "transferFrom",
      "outputs": [],
      "stateMutability": "nonpayable",
      "type": "function"
    },
    {
      "inputs": [
        {
          "internalType": "address",
          "name": "newOwner",
          "type": "address"
        }
      ],
      "name": "transferOwnership",
      "outputs": [],
      "stateMutability": "nonpayable",
      "type": "function"
    }
  ],
  "bytecode": "0x60806040523480156200001157600080fd5b506040518060400160405280600881526020017f53616d70617474690000000000000000000000000000000000000000000000008152506040518060400160405280600681526020017f535054373231000000000000000000000000000000000000000000000000000081525081600090816200008f919062000412565b508060019081620000a1919062000412565b505050620000c4620000b8620000ca60201b60201c565b620000d260201b60201c565b620004f9565b600033905090565b6000600760009054906101000a900473ffffffffffffffffffffffffffffffffffffffff16905081600760006101000a81548173ffffffffffffffffffffffffffffffffffffffff021916908373ffffffffffffffffffffffffffffffffffffffff1602179055508173ffffffffffffffffffffffffffffffffffffffff168173ffffffffffffffffffffffffffffffffffffffff167f8be0079c531659141344cd1fd0a4f28419497f9722a3daafe3b4186f6b6457e060405160405180910390a35050565b600081519050919050565b7f4e487b7100000000000000000000000000000000000000000000000000000000600052604160045260246000fd5b7f4e487b7100000000000000000000000000000000000000000000000000000000600052602260045260246000fd5b600060028204905060018216806200021a57607f821691505b60208210810362000230576200022f620001d2565b5b50919050565b60008190508160005260206000209050919050565b60006020601f8301049050919050565b600082821b905092915050565b6000600883026200029a7fffffffffffffffffffffffffffffffffffffffffffffffffffffffffffffffff826200025b565b620002a686836200025b565b95508019841693508086168417925050509392505050565b6000819050919050565b6000819050919050565b6000620002f3620002ed620002e784620002be565b620002c8565b620002be565b9050919050565b6000819050919050565b6200030f83620002d2565b620003276200031e82620002fa565b84845462000268565b825550505050565b600090565b6200033e6200032f565b6200034b81848462000304565b505050565b5b8181101562000373576200036760008262000334565b60018101905062000351565b5050565b601f821115620003c2576200038c8162000236565b62000397846200024b565b81016020851015620003a7578190505b620003bf620003b6856200024b565b83018262000350565b50505b505050565b600082821c905092915050565b6000620003e760001984600802620003c7565b1980831691505092915050565b6000620004028383620003d4565b9150826002028217905092915050565b6200041d8262000198565b67ffffffffffffffff811115620004395762000438620001a3565b5b62000445825462000201565b6200045282828562000377565b600060209050601f8311600181146200048a576000841562000475578287015190505b620004818582620003f4565b865550620004f1565b601f1984166200049a8662000236565b60005b82811015620004c4578489015182556001820191506020850194506020810190506200049d565b86831015620004e45784890151620004e0601f891682620003d4565b8355505b6001600288020188555050505b505050505050565b61302880620005096000396000f3fe608060405234801561001057600080fd5b50600436106101165760003560e01c806370a08231116100a2578063a22cb46511610071578063a22cb465146102cd578063b88d4fde146102e9578063c87b56dd14610305578063e985e9c514610335578063f2fde38b1461036557610116565b806370a0823114610257578063715018a6146102875780638da5cb5b1461029157806395d89b41146102af57610116565b806318160ddd116100e957806318160ddd146101b557806323b872dd146101d357806342842e0e146101ef5780636352211e1461020b578063695850fb1461023b57610116565b806301ffc9a71461011b57806306fdde031461014b578063081812fc14610169578063095ea7b314610199575b600080fd5b61013560048036038101906101309190611d6a565b610381565b6040516101429190611db2565b60405180910390f35b610153610463565b6040516101609190611e66565b60405180910390f35b610183600480360381019061017e9190611ebe565b6104f5565b6040516101909190611f2c565b60405180910390f35b6101b360048036038101906101ae9190611f73565b61053b565b005b6101bd610652565b6040516101ca9190611fc2565b60405180910390f35b6101ed60048036038101906101e89190611fdd565b610663565b005b61020960048036038101906102049190611fdd565b6106c3565b005b61022560048036038101906102209190611ebe565b6106e3565b6040516102329190611f2c565b60405180910390f35b61025560048036038101906102509190612165565b610769565b005b610271600480360381019061026c91906121ae565b610799565b60405161027e9190611fc2565b60405180910390f35b61028f610850565b005b610299610864565b6040516102a69190611f2c565b60405180910390f35b6102b761088e565b6040516102c49190611e66565b60405180910390f35b6102e760048036038101906102e29190612207565b610920565b005b61030360048036038101906102fe91906122e8565b610936565b005b61031f600480360381019061031a9190611ebe565b610998565b60405161032c9190611e66565b60405180910390f35b61034f600480360381019061034a919061236b565b6109aa565b60405161035c9190611db2565b60405180910390f35b61037f600480360381019061037a91906121ae565b610a3e565b005b60007f80ac58cd000000000000000000000000000000000000000000000000000000007bffffffffffffffffffffffffffffffffffffffffffffffffffffffff1916827bffffffffffffffffffffffffffffffffffffffffffffffffffffffff1916148061044c57507f5b5e139f000000000000000000000000000000000000000000000000000000007bffffffffffffffffffffffffffffffffffffffffffffffffffffffff1916827bffffffffffffffffffffffffffffffffffffffffffffffffffffffff1916145b8061045c575061045b82610ac1565b5b9050919050565b606060008054610472906123da565b80601f016020809104026020016040519081016040528092919081815260200182805461049e906123da565b80156104eb5780601f106104c0576101008083540402835291602001916104eb565b820191906000526020600020905b8154815290600101906020018083116104ce57829003601f168201915b5050505050905090565b600061050082610b2b565b6004600083815260200190815260200160002060009054906101000a900473ffffffffffffffffffffffffffffffffffffffff169050919050565b6000610546826106e3565b90508073ffffffffffffffffffffffffffffffffffffffff168373ffffffffffffffffffffffffffffffffffffffff16036105b6576040517f08c379a00000000000000000000000000000000000000000000000000000000081526004016105ad9061247d565b60405180910390fd5b8073ffffffffffffffffffffffffffffffffffffffff166105d5610b76565b73ffffffffffffffffffffffffffffffffffffffff1614806106045750610603816105fe610b76565b6109aa565b5b610643576040517f08c379a000000000000000000000000000000000000000000000000000000000815260040161063a9061250f565b60405180910390fd5b61064d8383610b7e565b505050565b600061065e6008610c37565b905090565b61067461066e610b76565b82610c45565b6106b3576040517f08c379a00000000000000000000000000000000000000000000000000000000081526004016106aa906125a1565b60405180910390fd5b6106be838383610cda565b505050565b6106de83838360405180602001604052806000815250610936565b505050565b6000806106ef83610fd3565b9050600073ffffffffffffffffffffffffffffffffffffffff168173ffffffffffffffffffffffffffffffffffffffff1603610760576040517f08c379a00000000000000000000000000000000000000000000000000000000081526004016107579061260d565b60405180910390fd5b80915050919050565b60006107756008610c37565b90506107816008611010565b61078b3382611026565b6107958183611044565b5050565b60008073ffffffffffffffffffffffffffffffffffffffff168273ffffffffffffffffffffffffffffffffffffffff1603610809576040517f08c379a00000000000000000000000000000000000000000000000000000000081526004016108009061269f565b60405180910390fd5b600360008373ffffffffffffffffffffffffffffffffffffffff1673ffffffffffffffffffffffffffffffffffffffff168152602001908152602001600020549050919050565b6108586110b1565b610862600061112f565b565b6000600760009054906101000a900473ffffffffffffffffffffffffffffffffffffffff16905090565b60606001805461089d906123da565b80601f01602080910402602001604051908101604052809291908181526020018280546108c9906123da565b80156109165780601f106108eb57610100808354040283529160200191610916565b820191906000526020600020905b8154815290600101906020018083116108f957829003601f168201915b5050505050905090565b61093261092b610b76565b83836111f5565b5050565b610947610941610b76565b83610c45565b610986576040517f08c379a000000000000000000000000000000000000000000000000000000000815260040161097d906125a1565b60405180910390fd5b61099284848484611361565b50505050565b60606109a3826113bd565b9050919050565b6000600560008473ffffffffffffffffffffffffffffffffffffffff1673ffffffffffffffffffffffffffffffffffffffff16815260200190815260200160002060008373ffffffffffffffffffffffffffffffffffffffff1673ffffffffffffffffffffffffffffffffffffffff16815260200190815260200160002060009054906101000a900460ff16905092915050565b610a466110b1565b600073ffffffffffffffffffffffffffffffffffffffff168173ffffffffffffffffffffffffffffffffffffffff1603610ab5576040517f08c379a0000000000000000000000000000000000000000000000000000000008152600401610aac90612731565b60405180910390fd5b610abe8161112f565b50565b60007f01ffc9a7000000000000000000000000000000000000000000000000000000007bffffffffffffffffffffffffffffffffffffffffffffffffffffffff1916827bffffffffffffffffffffffffffffffffffffffffffffffffffffffff1916149050919050565b610b34816114cf565b610b73576040517f08c379a0000000000000000000000000000000000000000000000000000000008152600401610b6a9061260d565b60405180910390fd5b50565b600033905090565b816004600083815260200190815260200160002060006101000a81548173ffffffffffffffffffffffffffffffffffffffff021916908373ffffffffffffffffffffffffffffffffffffffff160217905550808273ffffffffffffffffffffffffffffffffffffffff16610bf1836106e3565b73ffffffffffffffffffffffffffffffffffffffff167f8c5be1e5ebec7d5bd14f71427d1e84f3dd0314c0f7b2291e5b200ac8c7c3b92560405160405180910390a45050565b600081600001549050919050565b600080610c51836106e3565b90508073ffffffffffffffffffffffffffffffffffffffff168473ffffffffffffffffffffffffffffffffffffffff161480610c935750610c9281856109aa565b5b80610cd157508373ffffffffffffffffffffffffffffffffffffffff16610cb9846104f5565b73ffffffffffffffffffffffffffffffffffffffff16145b91505092915050565b8273ffffffffffffffffffffffffffffffffffffffff16610cfa826106e3565b73ffffffffffffffffffffffffffffffffffffffff1614610d50576040517f08c379a0000000000000000000000000000000000000000000000000000000008152600401610d47906127c3565b60405180910390fd5b600073ffffffffffffffffffffffffffffffffffffffff168273ffffffffffffffffffffffffffffffffffffffff1603610dbf576040517f08c379a0000000000000000000000000000000000000000000000000000000008152600401610db690612855565b60405180910390fd5b610dcc8383836001611510565b8273ffffffffffffffffffffffffffffffffffffffff16610dec826106e3565b73ffffffffffffffffffffffffffffffffffffffff1614610e42576040517f08c379a0000000000000000000000000000000000000000000000000000000008152600401610e39906127c3565b60405180910390fd5b6004600082815260200190815260200160002060006101000a81549073ffffffffffffffffffffffffffffffffffffffff02191690556001600360008573ffffffffffffffffffffffffffffffffffffffff1673ffffffffffffffffffffffffffffffffffffffff168152602001908152602001600020600082825403925050819055506001600360008473ffffffffffffffffffffffffffffffffffffffff1673ffffffffffffffffffffffffffffffffffffffff16815260200190815260200160002060008282540192505081905550816002600083815260200190815260200160002060006101000a81548173ffffffffffffffffffffffffffffffffffffffff021916908373ffffffffffffffffffffffffffffffffffffffff160217905550808273ffffffffffffffffffffffffffffffffffffffff168473ffffffffffffffffffffffffffffffffffffffff167fddf252ad1be2c89b69c2b068fc378daa952ba7f163c4a11628f55a4df523b3ef60405160405180910390a4610fce8383836001611636565b505050565b60006002600083815260200190815260200160002060009054906101000a900473ffffffffffffffffffffffffffffffffffffffff169050919050565b6001816000016000828254019250508190555050565b61104082826040518060200160405280600081525061163c565b5050565b61104d826114cf565b61108c576040517f08c379a0000000000000000000000000000000000000000000000000000000008152600401611083906128e7565b60405180910390fd5b806006600084815260200190815260200160002090816110ac9190612ab3565b505050565b6110b9610b76565b73ffffffffffffffffffffffffffffffffffffffff166110d7610864565b73ffffffffffffffffffffffffffffffffffffffff161461112d576040517f08c379a000000000000000000000000000000000000000000000000000000000815260040161112490612bd1565b60405180910390fd5b565b6000600760009054906101000a900473ffffffffffffffffffffffffffffffffffffffff16905081600760006101000a81548173ffffffffffffffffffffffffffffffffffffffff021916908373ffffffffffffffffffffffffffffffffffffffff1602179055508173ffffffffffffffffffffffffffffffffffffffff168173ffffffffffffffffffffffffffffffffffffffff167f8be0079c531659141344cd1fd0a4f28419497f9722a3daafe3b4186f6b6457e060405160405180910390a35050565b8173ffffffffffffffffffffffffffffffffffffffff168373ffffffffffffffffffffffffffffffffffffffff1603611263576040517f08c379a000000000000000000000000000000000000000000000000000000000815260040161125a90612c3d565b60405180910390fd5b80600560008573ffffffffffffffffffffffffffffffffffffffff1673ffffffffffffffffffffffffffffffffffffffff16815260200190815260200160002060008473ffffffffffffffffffffffffffffffffffffffff1673ffffffffffffffffffffffffffffffffffffffff16815260200190815260200160002060006101000a81548160ff0219169083151502179055508173ffffffffffffffffffffffffffffffffffffffff168373ffffffffffffffffffffffffffffffffffffffff167f17307eab39ab6107e8899845ad3d59bd9653f200f220920489ca2b5937696c31836040516113549190611db2565b60405180910390a3505050565b61136c848484610cda565b61137884848484611697565b6113b7576040517f08c379a00000000000000000000000000000000000000000000000000000000081526004016113ae90612ccf565b60405180910390fd5b50505050565b60606113c882610b2b565b60006006600084815260200190815260200160002080546113e8906123da565b80601f0160208091040260200160405190810160405280929190818152602001828054611414906123da565b80156114615780601f1061143657610100808354040283529160200191611461565b820191906000526020600020905b81548152906001019060200180831161144457829003601f168201915b50505050509050600061147261181e565b905060008151036114875781925050506114ca565b6000825111156114bc5780826040516020016114a4929190612d2b565b604051602081830303815290604052925050506114ca565b6114c584611835565b925050505b919050565b60008073ffffffffffffffffffffffffffffffffffffffff166114f183610fd3565b73ffffffffffffffffffffffffffffffffffffffff1614159050919050565b600181111561163057600073ffffffffffffffffffffffffffffffffffffffff168473ffffffffffffffffffffffffffffffffffffffff16146115a45780600360008673ffffffffffffffffffffffffffffffffffffffff1673ffffffffffffffffffffffffffffffffffffffff168152602001908152602001600020600082825461159c9190612d7e565b925050819055505b600073ffffffffffffffffffffffffffffffffffffffff168373ffffffffffffffffffffffffffffffffffffffff161461162f5780600360008573ffffffffffffffffffffffffffffffffffffffff1673ffffffffffffffffffffffffffffffffffffffff16815260200190815260200160002060008282546116279190612db2565b925050819055505b5b50505050565b50505050565b611646838361189d565b6116536000848484611697565b611692576040517f08c379a000000000000000000000000000000000000000000000000000000000815260040161168990612ccf565b60405180910390fd5b505050565b60006116b88473ffffffffffffffffffffffffffffffffffffffff16611aba565b15611811578373ffffffffffffffffffffffffffffffffffffffff1663150b7a026116e1610b76565b8786866040518563ffffffff1660e01b81526004016117039493929190612e5d565b6020604051808303816000875af192505050801561173f57506040513d601f19601f8201168201806040525081019061173c9190612ebe565b60015b6117c1573d806000811461176f576040519150601f19603f3d011682016040523d82523d6000602084013e611774565b606091505b5060008151036117b9576040517f08c379a00000000000000000000000000000000000000000000000000000000081526004016117b090612ccf565b60405180910390fd5b805181602001fd5b63150b7a0260e01b7bffffffffffffffffffffffffffffffffffffffffffffffffffffffff1916817bffffffffffffffffffffffffffffffffffffffffffffffffffffffff191614915050611816565b600190505b949350505050565b606060405180602001604052806000815250905090565b606061184082610b2b565b600061184a61181e565b9050600081511161186a5760405180602001604052806000815250611895565b8061187484611add565b604051602001611885929190612d2b565b6040516020818303038152906040525b915050919050565b600073ffffffffffffffffffffffffffffffffffffffff168273ffffffffffffffffffffffffffffffffffffffff160361190c576040517f08c379a000000000000000000000000000000000000000000000000000000000815260040161190390612f37565b60405180910390fd5b611915816114cf565b15611955576040517f08c379a000000000000000000000000000000000000000000000000000000000815260040161194c90612fa3565b60405180910390fd5b611963600083836001611510565b61196c816114cf565b156119ac576040517f08c379a00000000000000000000000000000000000000000000000000000000081526004016119a390612fa3565b60405180910390fd5b6001600360008473ffffffffffffffffffffffffffffffffffffffff1673ffffffffffffffffffffffffffffffffffffffff16815260200190815260200160002060008282540192505081905550816002600083815260200190815260200160002060006101000a81548173ffffffffffffffffffffffffffffffffffffffff021916908373ffffffffffffffffffffffffffffffffffffffff160217905550808273ffffffffffffffffffffffffffffffffffffffff16600073ffffffffffffffffffffffffffffffffffffffff167fddf252ad1be2c89b69c2b068fc378daa952ba7f163c4a11628f55a4df523b3ef60405160405180910390a4611ab6600083836001611636565b5050565b6000808273ffffffffffffffffffffffffffffffffffffffff163b119050919050565b606060006001611aec84611bab565b01905060008167ffffffffffffffff811115611b0b57611b0a61203a565b5b6040519080825280601f01601f191660200182016040528015611b3d5781602001600182028036833780820191505090505b509050600082602001820190505b600115611ba0578080600190039150507f3031323334353637383961626364656600000000000000000000000000000000600a86061a8153600a8581611b9457611b93612fc3565b5b04945060008503611b4b575b819350505050919050565b600080600090507a184f03e93ff9f4daa797ed6e38ed64bf6a1f0100000000000000008310611c09577a184f03e93ff9f4daa797ed6e38ed64bf6a1f0100000000000000008381611bff57611bfe612fc3565b5b0492506040810190505b6d04ee2d6d415b85acef81000000008310611c46576d04ee2d6d415b85acef81000000008381611c3c57611c3b612fc3565b5b0492506020810190505b662386f26fc100008310611c7557662386f26fc100008381611c6b57611c6a612fc3565b5b0492506010810190505b6305f5e1008310611c9e576305f5e1008381611c9457611c93612fc3565b5b0492506008810190505b6127108310611cc3576127108381611cb957611cb8612fc3565b5b0492506004810190505b60648310611ce65760648381611cdc57611cdb612fc3565b5b0492506002810190505b600a8310611cf5576001810190505b80915050919050565b6000604051905090565b600080fd5b600080fd5b60007fffffffff0000000000000000000000000000000000000000000000000000000082169050919050565b611d4781611d12565b8114611d5257600080fd5b50565b600081359050611d6481611d3e565b92915050565b600060208284031215611d8057611d7f611d08565b5b6000611d8e84828501611d55565b91505092915050565b60008115159050919050565b611dac81611d97565b82525050565b6000602082019050611dc76000830184611da3565b92915050565b600081519050919050565b600082825260208201905092915050565b60005b83811015611e07578082015181840152602081019050611dec565b83811115611e16576000848401525b50505050565b6000601f19601f8301169050919050565b6000611e3882611dcd565b611e428185611dd8565b9350611e52818560208601611de9565b611e5b81611e1c565b840191505092915050565b60006020820190508181036000830152611e808184611e2d565b905092915050565b6000819050919050565b611e9b81611e88565b8114611ea657600080fd5b50565b600081359050611eb881611e92565b92915050565b600060208284031215611ed457611ed3611d08565b5b6000611ee284828501611ea9565b91505092915050565b600073ffffffffffffffffffffffffffffffffffffffff82169050919050565b6000611f1682611eeb565b9050919050565b611f2681611f0b565b82525050565b6000602082019050611f416000830184611f1d565b92915050565b611f5081611f0b565b8114611f5b57600080fd5b50565b600081359050611f6d81611f47565b92915050565b60008060408385031215611f8a57611f89611d08565b5b6000611f9885828601611f5e565b9250506020611fa985828601611ea9565b9150509250929050565b611fbc81611e88565b82525050565b6000602082019050611fd76000830184611fb3565b92915050565b600080600060608486031215611ff657611ff5611d08565b5b600061200486828701611f5e565b935050602061201586828701611f5e565b925050604061202686828701611ea9565b9150509250925092565b600080fd5b600080fd5b7f4e487b7100000000000000000000000000000000000000000000000000000000600052604160045260246000fd5b61207282611e1c565b810181811067ffffffffffffffff821117156120915761209061203a565b5b80604052505050565b60006120a4611cfe565b90506120b08282612069565b919050565b600067ffffffffffffffff8211156120d0576120cf61203a565b5b6120d982611e1c565b9050602081019050919050565b82818337600083830152505050565b6000612108612103846120b5565b61209a565b90508281526020810184848401111561212457612123612035565b5b61212f8482856120e6565b509392505050565b600082601f83011261214c5761214b612030565b5b813561215c8482602086016120f5565b91505092915050565b60006020828403121561217b5761217a611d08565b5b600082013567ffffffffffffffff81111561219957612198611d0d565b5b6121a584828501612137565b91505092915050565b6000602082840312156121c4576121c3611d08565b5b60006121d284828501611f5e565b91505092915050565b6121e481611d97565b81146121ef57600080fd5b50565b600081359050612201816121db565b92915050565b6000806040838503121561221e5761221d611d08565b5b600061222c85828601611f5e565b925050602061223d858286016121f2565b9150509250929050565b600067ffffffffffffffff8211156122625761226161203a565b5b61226b82611e1c565b9050602081019050919050565b600061228b61228684612247565b61209a565b9050828152602081018484840111156122a7576122a6612035565b5b6122b28482856120e6565b509392505050565b600082601f8301126122cf576122ce612030565b5b81356122df848260208601612278565b91505092915050565b6000806000806080858703121561230257612301611d08565b5b600061231087828801611f5e565b945050602061232187828801611f5e565b935050604061233287828801611ea9565b925050606085013567ffffffffffffffff81111561235357612352611d0d565b5b61235f878288016122ba565b91505092959194509250565b6000806040838503121561238257612381611d08565b5b600061239085828601611f5e565b92505060206123a185828601611f5e565b9150509250929050565b7f4e487b7100000000000000000000000000000000000000000000000000000000600052602260045260246000fd5b600060028204905060018216806123f257607f821691505b602082108103612405576124046123ab565b5b50919050565b7f4552433732313a20617070726f76616c20746f2063757272656e74206f776e6560008201527f7200000000000000000000000000000000000000000000000000000000000000602082015250565b6000612467602183611dd8565b91506124728261240b565b604082019050919050565b600060208201905081810360008301526124968161245a565b9050919050565b7f4552433732313a20617070726f76652063616c6c6572206973206e6f7420746f60008201527f6b656e206f776e6572206f7220617070726f76656420666f7220616c6c000000602082015250565b60006124f9603d83611dd8565b91506125048261249d565b604082019050919050565b60006020820190508181036000830152612528816124ec565b9050919050565b7f4552433732313a2063616c6c6572206973206e6f7420746f6b656e206f776e6560008201527f72206f7220617070726f76656400000000000000000000000000000000000000602082015250565b600061258b602d83611dd8565b91506125968261252f565b604082019050919050565b600060208201905081810360008301526125ba8161257e565b9050919050565b7f4552433732313a20696e76616c696420746f6b656e2049440000000000000000600082015250565b60006125f7601883611dd8565b9150612602826125c1565b602082019050919050565b60006020820190508181036000830152612626816125ea565b9050919050565b7f4552433732313a2061646472657373207a65726f206973206e6f74206120766160008201527f6c6964206f776e65720000000000000000000000000000000000000000000000602082015250565b6000612689602983611dd8565b91506126948261262d565b604082019050919050565b600060208201905081810360008301526126b88161267c565b9050919050565b7f4f776e61626c653a206e6577206f776e657220697320746865207a65726f206160008201527f6464726573730000000000000000000000000000000000000000000000000000602082015250565b600061271b602683611dd8565b9150612726826126bf565b604082019050919050565b6000602082019050818103600083015261274a8161270e565b9050919050565b7f4552433732313a207472616e736665722066726f6d20696e636f72726563742060008201527f6f776e6572000000000000000000000000000000000000000000000000000000602082015250565b60006127ad602583611dd8565b91506127b882612751565b604082019050919050565b600060208201905081810360008301526127dc816127a0565b9050919050565b7f4552433732313a207472616e7366657220746f20746865207a65726f2061646460008201527f7265737300000000000000000000000000000000000000000000000000000000602082015250565b600061283f602483611dd8565b915061284a826127e3565b604082019050919050565b6000602082019050818103600083015261286e81612832565b9050919050565b7f45524337323155524953746f726167653a2055524920736574206f66206e6f6e60008201527f6578697374656e7420746f6b656e000000000000000000000000000000000000602082015250565b60006128d1602e83611dd8565b91506128dc82612875565b604082019050919050565b60006020820190508181036000830152612900816128c4565b9050919050565b60008190508160005260206000209050919050565b60006020601f8301049050919050565b600082821b905092915050565b6000600883026129697fffffffffffffffffffffffffffffffffffffffffffffffffffffffffffffffff8261292c565b612973868361292c565b95508019841693508086168417925050509392505050565b6000819050919050565b60006129b06129ab6129a684611e88565b61298b565b611e88565b9050919050565b6000819050919050565b6129ca83612995565b6129de6129d6826129b7565b848454612939565b825550505050565b600090565b6129f36129e6565b6129fe8184846129c1565b505050565b5b81811015612a2257612a176000826129eb565b600181019050612a04565b5050565b601f821115612a6757612a3881612907565b612a418461291c565b81016020851015612a50578190505b612a64612a5c8561291c565b830182612a03565b50505b505050565b600082821c905092915050565b6000612a8a60001984600802612a6c565b1980831691505092915050565b6000612aa38383612a79565b9150826002028217905092915050565b612abc82611dcd565b67ffffffffffffffff811115612ad557612ad461203a565b5b612adf82546123da565b612aea828285612a26565b600060209050601f831160018114612b1d5760008415612b0b578287015190505b612b158582612a97565b865550612b7d565b601f198416612b2b86612907565b60005b82811015612b5357848901518255600182019150602085019450602081019050612b2e565b86831015612b705784890151612b6c601f891682612a79565b8355505b6001600288020188555050505b505050505050565b7f4f776e61626c653a2063616c6c6572206973206e6f7420746865206f776e6572600082015250565b6000612bbb602083611dd8565b9150612bc682612b85565b602082019050919050565b60006020820190508181036000830152612bea81612bae565b9050919050565b7f4552433732313a20617070726f766520746f2063616c6c657200000000000000600082015250565b6000612c27601983611dd8565b9150612c3282612bf1565b602082019050919050565b60006020820190508181036000830152612c5681612c1a565b9050919050565b7f4552433732313a207472616e7366657220746f206e6f6e20455243373231526560008201527f63656976657220696d706c656d656e7465720000000000000000000000000000602082015250565b6000612cb9603283611dd8565b9150612cc482612c5d565b604082019050919050565b60006020820190508181036000830152612ce881612cac565b9050919050565b600081905092915050565b6000612d0582611dcd565b612d0f8185612cef565b9350612d1f818560208601611de9565b80840191505092915050565b6000612d378285612cfa565b9150612d438284612cfa565b91508190509392505050565b7f4e487b7100000000000000000000000000000000000000000000000000000000600052601160045260246000fd5b6000612d8982611e88565b9150612d9483611e88565b925082821015612da757612da6612d4f565b5b828203905092915050565b6000612dbd82611e88565b9150612dc883611e88565b9250827fffffffffffffffffffffffffffffffffffffffffffffffffffffffffffffffff03821115612dfd57612dfc612d4f565b5b828201905092915050565b600081519050919050565b600082825260208201905092915050565b6000612e2f82612e08565b612e398185612e13565b9350612e49818560208601611de9565b612e5281611e1c565b840191505092915050565b6000608082019050612e726000830187611f1d565b612e7f6020830186611f1d565b612e8c6040830185611fb3565b8181036060830152612e9e8184612e24565b905095945050505050565b600081519050612eb881611d3e565b92915050565b600060208284031215612ed457612ed3611d08565b5b6000612ee284828501612ea9565b91505092915050565b7f4552433732313a206d696e7420746f20746865207a65726f2061646472657373600082015250565b6000612f21602083611dd8565b9150612f2c82612eeb565b602082019050919050565b60006020820190508181036000830152612f5081612f14565b9050919050565b7f4552433732313a20746f6b656e20616c7265616479206d696e74656400000000600082015250565b6000612f8d601c83611dd8565b9150612f9882612f57565b602082019050919050565b60006020820190508181036000830152612fbc81612f80565b9050919050565b7f4e487b7100000000000000000000000000000000000000000000000000000000600052601260045260246000fdfea264697066735822122036a298ca5ac45e2f8d65936015aed2d372863de7123163c92eb9a229fe731e2c64736f6c634300080f0033",
  "linkReferences": {},
  "deployedLinkReferences": {}
}