{
  "_format": "hh-sol-artifact-1",
  "contractName": "Sampatti",
  "sourceName": "contracts/Sampatti.sol",
  "abi": [
    {
      "inputs": [
        {
          "internalType": "uint256",
          "name": "_fee",
          "type": "uint256"
        },
        {
          "internalType": "uint256",
          "name": "_stakeFee",
          "type": "uint256"
        },
        {
          "internalType": "contract SPTToken",
          "name": "_token",
          "type": "address"
        },
        {
          "internalType": "uint256",
          "name": "_valueOfToken",
          "type": "uint256"
        }
      ],
      "stateMutability": "nonpayable",
      "type": "constructor"
    },
    {
      "anonymous": false,
      "inputs": [
        {
          "indexed": true,
          "internalType": "address",
          "name": "_from",
          "type": "address"
        },
        {
          "indexed": false,
          "internalType": "string",
          "name": "_name",
          "type": "string"
        },
        {
          "indexed": false,
          "internalType": "string",
          "name": "_uri",
          "type": "string"
        },
        {
          "indexed": false,
          "internalType": "uint256",
          "name": "_reqID",
          "type": "uint256"
        }
      ],
      "name": "ReqFile",
      "type": "event"
    },
    {
      "inputs": [
        {
          "internalType": "uint256",
          "name": "_amtOftoken",
          "type": "uint256"
        }
      ],
      "name": "buyFundToken",
      "outputs": [
        {
          "internalType": "bool",
          "name": "",
          "type": "bool"
        }
      ],
      "stateMutability": "payable",
      "type": "function"
    },
    {
      "inputs": [],
      "name": "chargeFee",
      "outputs": [
        {
          "internalType": "uint256",
          "name": "",
          "type": "uint256"
        }
      ],
      "stateMutability": "view",
      "type": "function"
    },
    {
      "inputs": [
        {
          "internalType": "uint256",
          "name": "_reqId",
          "type": "uint256"
        }
      ],
      "name": "claimStake",
      "outputs": [],
      "stateMutability": "nonpayable",
      "type": "function"
    },
    {
      "inputs": [],
      "name": "contAdd",
      "outputs": [
        {
          "internalType": "address",
          "name": "",
          "type": "address"
        }
      ],
      "stateMutability": "view",
      "type": "function"
    },
    {
      "inputs": [
        {
          "internalType": "uint256",
          "name": "_reqId",
          "type": "uint256"
        }
      ],
      "name": "endRequest",
      "outputs": [],
      "stateMutability": "nonpayable",
      "type": "function"
    },
    {
      "inputs": [
        {
          "internalType": "address",
          "name": "user",
          "type": "address"
        }
      ],
      "name": "getStake",
      "outputs": [
        {
          "internalType": "uint256",
          "name": "",
          "type": "uint256"
        }
      ],
      "stateMutability": "view",
      "type": "function"
    },
    {
      "inputs": [],
      "name": "owneradd",
      "outputs": [
        {
          "internalType": "address",
          "name": "",
          "type": "address"
        }
      ],
      "stateMutability": "view",
      "type": "function"
    },
    {
      "inputs": [
        {
          "internalType": "string",
          "name": "_uri",
          "type": "string"
        },
        {
          "internalType": "string",
          "name": "_name",
          "type": "string"
        }
      ],
      "name": "proposeRequest",
      "outputs": [],
      "stateMutability": "nonpayable",
      "type": "function"
    },
    {
      "inputs": [
        {
          "internalType": "uint256",
          "name": "",
          "type": "uint256"
        }
      ],
      "name": "requests",
      "outputs": [
        {
          "internalType": "uint256",
          "name": "reqID",
          "type": "uint256"
        },
        {
          "internalType": "address",
          "name": "from",
          "type": "address"
        },
        {
          "internalType": "string",
          "name": "name_req_for_owner",
          "type": "string"
        },
        {
          "internalType": "string",
          "name": "uri",
          "type": "string"
        },
        {
          "internalType": "enum Sampatti.Status",
          "name": "status",
          "type": "uint8"
        },
        {
          "internalType": "bool",
          "name": "final_decision",
          "type": "bool"
        },
        {
          "internalType": "uint256",
          "name": "finalisedAt",
          "type": "uint256"
        },
        {
          "internalType": "uint256",
          "name": "totalWinningVotes",
          "type": "uint256"
        }
      ],
      "stateMutability": "view",
      "type": "function"
    },
    {
      "inputs": [],
      "name": "sptToken",
      "outputs": [
        {
          "internalType": "contract SPTToken",
          "name": "",
          "type": "address"
        }
      ],
      "stateMutability": "view",
      "type": "function"
    },
    {
      "inputs": [
        {
          "internalType": "uint256",
          "name": "stakeAmt",
          "type": "uint256"
        }
      ],
      "name": "stake",
      "outputs": [],
      "stateMutability": "nonpayable",
      "type": "function"
    },
    {
      "inputs": [],
      "name": "stakeFee",
      "outputs": [
        {
          "internalType": "uint256",
          "name": "",
          "type": "uint256"
        }
      ],
      "stateMutability": "view",
      "type": "function"
    },
    {
      "inputs": [
        {
          "internalType": "address",
          "name": "",
          "type": "address"
        }
      ],
      "name": "stakeHolders",
      "outputs": [
        {
          "internalType": "uint256",
          "name": "",
          "type": "uint256"
        }
      ],
      "stateMutability": "view",
      "type": "function"
    },
    {
      "inputs": [],
      "name": "totalStaked",
      "outputs": [
        {
          "internalType": "uint256",
          "name": "",
          "type": "uint256"
        }
      ],
      "stateMutability": "view",
      "type": "function"
    },
    {
      "inputs": [
        {
          "internalType": "address",
          "name": "",
          "type": "address"
        }
      ],
      "name": "validators",
      "outputs": [
        {
          "internalType": "bool",
          "name": "",
          "type": "bool"
        }
      ],
      "stateMutability": "view",
      "type": "function"
    },
    {
      "inputs": [],
      "name": "valueTobuyToken",
      "outputs": [
        {
          "internalType": "uint256",
          "name": "",
          "type": "uint256"
        }
      ],
      "stateMutability": "view",
      "type": "function"
    },
    {
      "inputs": [
        {
          "internalType": "uint256",
          "name": "",
          "type": "uint256"
        },
        {
          "internalType": "uint256",
          "name": "",
          "type": "uint256"
        }
      ],
      "name": "votemap",
      "outputs": [
        {
          "internalType": "address",
          "name": "validator",
          "type": "address"
        },
        {
          "internalType": "bool",
          "name": "option",
          "type": "bool"
        }
      ],
      "stateMutability": "view",
      "type": "function"
    },
    {
      "inputs": [
        {
          "internalType": "uint256",
          "name": "_reqId",
          "type": "uint256"
        },
        {
          "internalType": "bool",
          "name": "option",
          "type": "bool"
        }
      ],
      "name": "voting",
      "outputs": [],
      "stateMutability": "nonpayable",
      "type": "function"
    },
    {
      "inputs": [],
      "name": "withdrawStake",
      "outputs": [],
      "stateMutability": "nonpayable",
      "type": "function"
    }
  ],
  "bytecode": "0x608060405260006005553480156200001657600080fd5b50604051620036063803806200360683398181016040528101906200003c9190620001df565b600160008190555033600160006101000a81548173ffffffffffffffffffffffffffffffffffffffff021916908373ffffffffffffffffffffffffffffffffffffffff16021790555030600260006101000a81548173ffffffffffffffffffffffffffffffffffffffff021916908373ffffffffffffffffffffffffffffffffffffffff160217905550836003819055508260048190555081600660006101000a81548173ffffffffffffffffffffffffffffffffffffffff021916908373ffffffffffffffffffffffffffffffffffffffff160217905550806007819055505050505062000251565b600080fd5b6000819050919050565b62000140816200012b565b81146200014c57600080fd5b50565b600081519050620001608162000135565b92915050565b600073ffffffffffffffffffffffffffffffffffffffff82169050919050565b6000620001938262000166565b9050919050565b6000620001a78262000186565b9050919050565b620001b9816200019a565b8114620001c557600080fd5b50565b600081519050620001d981620001ae565b92915050565b60008060008060808587031215620001fc57620001fb62000126565b5b60006200020c878288016200014f565b94505060206200021f878288016200014f565b93505060406200023287828801620001c8565b925050606062000245878288016200014f565b91505092959194509250565b6133a580620002616000396000f3fe6080604052600436106101145760003560e01c80637f089e27116100a0578063bed9d86111610064578063bed9d861146103ae578063c868f9e8146103c5578063e26ff10a146103ee578063f0cadfc01461042b578063fa52c7d81461045657610114565b80637f089e27146102a8578063817b1cd2146102d857806381d12c5814610303578063a694fc3a14610347578063bb77a3251461037057610114565b806344c7d6ef116100e757806344c7d6ef146101c35780635a4f459a146101ec5780635d7a8dfd14610215578063744c8c09146102405780637a7664601461026b57610114565b806317f4404814610119578063222c97771461014257806323954e851461016d5780633e814b3414610198575b600080fd5b34801561012557600080fd5b50610140600480360381019061013b9190612018565b610493565b005b34801561014e57600080fd5b50610157610c77565b6040516101649190612054565b60405180910390f35b34801561017957600080fd5b50610182610c7d565b60405161018f9190612054565b60405180910390f35b3480156101a457600080fd5b506101ad610c83565b6040516101ba91906120b0565b60405180910390f35b3480156101cf57600080fd5b506101ea60048036038101906101e59190612018565b610ca9565b005b3480156101f857600080fd5b50610213600480360381019061020e9190612103565b610fee565b005b34801561022157600080fd5b5061022a611365565b60405161023791906121a2565b60405180910390f35b34801561024c57600080fd5b5061025561138b565b6040516102629190612054565b60405180910390f35b34801561027757600080fd5b50610292600480360381019061028d91906121e9565b611391565b60405161029f9190612054565b60405180910390f35b6102c260048036038101906102bd9190612018565b6113da565b6040516102cf9190612225565b60405180910390f35b3480156102e457600080fd5b506102ed6115da565b6040516102fa9190612054565b60405180910390f35b34801561030f57600080fd5b5061032a60048036038101906103259190612018565b6115e0565b60405161033e989796959493929190612350565b60405180910390f35b34801561035357600080fd5b5061036e60048036038101906103699190612018565b611772565b005b34801561037c57600080fd5b50610397600480360381019061039291906123dc565b611a0a565b6040516103a592919061241c565b60405180910390f35b3480156103ba57600080fd5b506103c3611a74565b005b3480156103d157600080fd5b506103ec60048036038101906103e7919061257a565b611ca3565b005b3480156103fa57600080fd5b50610415600480360381019061041091906121e9565b611ef3565b6040516104229190612054565b60405180910390f35b34801561043757600080fd5b50610440611f0b565b60405161044d91906120b0565b60405180910390f35b34801561046257600080fd5b5061047d600480360381019061047891906121e9565b611f31565b60405161048a9190612225565b60405180910390f35b42600960008381526020019081526020016000206009015411156104ec576040517f08c379a00000000000000000000000000000000000000000000000000000000081526004016104e39061263e565b60405180910390fd5b60006002811115610500576104ff6122d9565b5b6009600083815260200190815260200160002060040160009054906101000a900460ff166002811115610536576105356122d9565b5b14610576576040517f08c379a000000000000000000000000000000000000000000000000000000000815260040161056d906126d0565b60405180910390fd5b6000806000805b600c60008681526020019081526020016000208054905081101561061b5760011515600c600087815260200190815260200160002082815481106105c4576105c36126f0565b5b9060005260206000200160000160149054906101000a900460ff161515036105f95783806105f19061274e565b945050610608565b82806106049061274e565b9350505b80806106139061274e565b91505061057d565b50818311156106b65760016009600086815260200190815260200160002060040160006101000a81548160ff0219169083600281111561065e5761065d6122d9565b5b02179055508260096000868152602001908152602001600020600a018190555060016009600086815260200190815260200160002060080160006101000a81548160ff02191690831515021790555060019050610744565b60026009600086815260200190815260200160002060040160006101000a81548160ff021916908360028111156106f0576106ef6122d9565b5b02179055508160096000868152602001908152602001600020600a018190555060006009600086815260200190815260200160002060080160006101000a81548160ff021916908315150217905550600090505b60005b600c60008681526020019081526020016000208054905081101561095a57811515600c6000878152602001908152602001600020828154811061078d5761078c6126f0565b5b9060005260206000200160000160149054906101000a900460ff1615151461087d5760096000868152602001908152602001600020600c01600c600087815260200190815260200160002082815481106107ea576107e96126f0565b5b9060005260206000200160000160009054906101000a900473ffffffffffffffffffffffffffffffffffffffff169080600181540180825580915050600190039060005260206000200160009091909190916101000a81548173ffffffffffffffffffffffffffffffffffffffff021916908373ffffffffffffffffffffffffffffffffffffffff160217905550610947565b60096000868152602001908152602001600020600b01600c600087815260200190815260200160002082815481106108b8576108b76126f0565b5b9060005260206000200160000160009054906101000a900473ffffffffffffffffffffffffffffffffffffffff169080600181540180825580915050600190039060005260206000200160009091909190916101000a81548173ffffffffffffffffffffffffffffffffffffffff021916908373ffffffffffffffffffffffffffffffffffffffff1602179055505b80806109529061274e565b915050610747565b5060005b60096000868152602001908152602001600020600c0180549050811015610c5557600a600b600060096000898152602001908152602001600020600c0184815481106109ad576109ac6126f0565b5b9060005260206000200160009054906101000a900473ffffffffffffffffffffffffffffffffffffffff1673ffffffffffffffffffffffffffffffffffffffff1673ffffffffffffffffffffffffffffffffffffffff16815260200190815260200160002054610a1d91906127c5565b600b600060096000898152602001908152602001600020600c018481548110610a4957610a486126f0565b5b9060005260206000200160009054906101000a900473ffffffffffffffffffffffffffffffffffffffff1673ffffffffffffffffffffffffffffffffffffffff1673ffffffffffffffffffffffffffffffffffffffff1681526020019081526020016000206000828254610abd91906127f6565b92505081905550600660009054906101000a900473ffffffffffffffffffffffffffffffffffffffff1673ffffffffffffffffffffffffffffffffffffffff166379cc679060096000888152602001908152602001600020600c018381548110610b2a57610b296126f0565b5b9060005260206000200160009054906101000a900473ffffffffffffffffffffffffffffffffffffffff16600a600b6000600960008c8152602001908152602001600020600c018781548110610b8357610b826126f0565b5b9060005260206000200160009054906101000a900473ffffffffffffffffffffffffffffffffffffffff1673ffffffffffffffffffffffffffffffffffffffff1673ffffffffffffffffffffffffffffffffffffffff16815260200190815260200160002054610bf391906127c5565b6040518363ffffffff1660e01b8152600401610c1092919061282a565b600060405180830381600087803b158015610c2a57600080fd5b505af1158015610c3e573d6000803e3d6000fd5b505050508080610c4d9061274e565b91505061095e565b5042600960008681526020019081526020016000206009018190555050505050565b60045481565b60075481565b600260009054906101000a900473ffffffffffffffffffffffffffffffffffffffff1681565b60006002811115610cbd57610cbc6122d9565b5b6009600083815260200190815260200160002060040160009054906101000a900460ff166002811115610cf357610cf26122d9565b5b03610d33576040517f08c379a0000000000000000000000000000000000000000000000000000000008152600401610d2a906128c5565b60405180910390fd5b60006009600083815260200190815260200160002060060160003373ffffffffffffffffffffffffffffffffffffffff1673ffffffffffffffffffffffffffffffffffffffff1681526020019081526020016000205403610dc9576040517f08c379a0000000000000000000000000000000000000000000000000000000008152600401610dc090612931565b60405180910390fd5b600015156009600083815260200190815260200160002060070160003373ffffffffffffffffffffffffffffffffffffffff1673ffffffffffffffffffffffffffffffffffffffff16815260200190815260200160002060009054906101000a900460ff16151514610e70576040517f08c379a0000000000000000000000000000000000000000000000000000000008152600401610e679061299d565b60405180910390fd5b600060096000838152602001908152602001600020600b018054905090506000816012600a610e9f9190612af0565b600354610eac9190612b3b565b610eb691906127c5565b9050600660009054906101000a900473ffffffffffffffffffffffffffffffffffffffff1673ffffffffffffffffffffffffffffffffffffffff166323b872dd600160009054906101000a900473ffffffffffffffffffffffffffffffffffffffff1633846040518463ffffffff1660e01b8152600401610f3993929190612b95565b6020604051808303816000875af1158015610f58573d6000803e3d6000fd5b505050506040513d601f19601f82011682018060405250810190610f7c9190612be1565b5060016009600085815260200190815260200160002060070160003373ffffffffffffffffffffffffffffffffffffffff1673ffffffffffffffffffffffffffffffffffffffff16815260200190815260200160002060006101000a81548160ff021916908315150217905550505050565b60011515600a60003373ffffffffffffffffffffffffffffffffffffffff1673ffffffffffffffffffffffffffffffffffffffff16815260200190815260200160002060009054906101000a900460ff16151514611081576040517f08c379a000000000000000000000000000000000000000000000000000000000815260040161107890612c5a565b60405180910390fd5b60006009600084815260200190815260200160002060060160003373ffffffffffffffffffffffffffffffffffffffff1673ffffffffffffffffffffffffffffffffffffffff1681526020019081526020016000205414611117576040517f08c379a000000000000000000000000000000000000000000000000000000000815260040161110e90612cc6565b60405180910390fd5b600060096000848152602001908152602001600020905060006002811115611142576111416122d9565b5b8160040160009054906101000a900460ff166002811115611166576111656122d9565b5b146111a6576040517f08c379a000000000000000000000000000000000000000000000000000000000815260040161119d90612d32565b60405180910390fd5b428160090154106111ec576040517f08c379a00000000000000000000000000000000000000000000000000000000081526004016111e390612d9e565b60405180910390fd5b60011515821515036112445760018160060160003373ffffffffffffffffffffffffffffffffffffffff1673ffffffffffffffffffffffffffffffffffffffff1681526020019081526020016000208190555061128c565b60028160060160003373ffffffffffffffffffffffffffffffffffffffff1673ffffffffffffffffffffffffffffffffffffffff168152602001908152602001600020819055505b600060405180604001604052803373ffffffffffffffffffffffffffffffffffffffff1681526020018415158152509050600c6000858152602001908152602001600020819080600181540180825580915050600190039060005260206000200160009091909190915060008201518160000160006101000a81548173ffffffffffffffffffffffffffffffffffffffff021916908373ffffffffffffffffffffffffffffffffffffffff16021790555060208201518160000160146101000a81548160ff021916908315150217905550505050505050565b600660009054906101000a900473ffffffffffffffffffffffffffffffffffffffff1681565b60035481565b6000600b60008373ffffffffffffffffffffffffffffffffffffffff1673ffffffffffffffffffffffffffffffffffffffff168152602001908152602001600020549050919050565b60006113e4611f51565b60008211611427576040517f08c379a000000000000000000000000000000000000000000000000000000000815260040161141e90612e30565b60405180910390fd5b600754826114359190612b3b565b341015611477576040517f08c379a000000000000000000000000000000000000000000000000000000000815260040161146e90612e9c565b60405180910390fd5b600660009054906101000a900473ffffffffffffffffffffffffffffffffffffffff1673ffffffffffffffffffffffffffffffffffffffff166323b872dd600160009054906101000a900473ffffffffffffffffffffffffffffffffffffffff16336012600a6114e79190612af0565b866114f29190612b3b565b6040518463ffffffff1660e01b815260040161151093929190612b95565b6020604051808303816000875af115801561152f573d6000803e3d6000fd5b505050506040513d601f19601f820116820180604052508101906115539190612be1565b506000600754836115649190612b3b565b3461156f91906127f6565b905060008111156115c85760003390508073ffffffffffffffffffffffffffffffffffffffff166108fc839081150290604051600060405180830381858888f193505050501580156115c5573d6000803e3d6000fd5b50505b60019150506115d5611fa0565b919050565b60055481565b60096020528060005260406000206000915090508060000154908060010160009054906101000a900473ffffffffffffffffffffffffffffffffffffffff169080600201805461162f90612eeb565b80601f016020809104026020016040519081016040528092919081815260200182805461165b90612eeb565b80156116a85780601f1061167d576101008083540402835291602001916116a8565b820191906000526020600020905b81548152906001019060200180831161168b57829003601f168201915b5050505050908060030180546116bd90612eeb565b80601f01602080910402602001604051908101604052809291908181526020018280546116e990612eeb565b80156117365780601f1061170b57610100808354040283529160200191611736565b820191906000526020600020905b81548152906001019060200180831161171957829003601f168201915b5050505050908060040160009054906101000a900460ff16908060080160009054906101000a900460ff169080600901549080600a0154905088565b60001515600a60003373ffffffffffffffffffffffffffffffffffffffff1673ffffffffffffffffffffffffffffffffffffffff16815260200190815260200160002060009054906101000a900460ff16151514611805576040517f08c379a00000000000000000000000000000000000000000000000000000000081526004016117fc90612f68565b60405180910390fd5b60045481101561184a576040517f08c379a000000000000000000000000000000000000000000000000000000000815260040161184190612fd4565b60405180910390fd5b600660009054906101000a900473ffffffffffffffffffffffffffffffffffffffff1673ffffffffffffffffffffffffffffffffffffffff166323b872dd33600160009054906101000a900473ffffffffffffffffffffffffffffffffffffffff166012600a6118ba9190612af0565b856118c59190612b3b565b6040518463ffffffff1660e01b81526004016118e393929190612b95565b6020604051808303816000875af1158015611902573d6000803e3d6000fd5b505050506040513d601f19601f820116820180604052508101906119269190612be1565b506012600a6119359190612af0565b816119409190612b3b565b60055461194d9190612ff4565b6005819055506012600a6119619190612af0565b8161196c9190612b3b565b600b60003373ffffffffffffffffffffffffffffffffffffffff1673ffffffffffffffffffffffffffffffffffffffff168152602001908152602001600020819055506001600a60003373ffffffffffffffffffffffffffffffffffffffff1673ffffffffffffffffffffffffffffffffffffffff16815260200190815260200160002060006101000a81548160ff02191690831515021790555050565b600c6020528160005260406000208181548110611a2657600080fd5b90600052602060002001600091509150508060000160009054906101000a900473ffffffffffffffffffffffffffffffffffffffff16908060000160149054906101000a900460ff16905082565b600a60003373ffffffffffffffffffffffffffffffffffffffff1673ffffffffffffffffffffffffffffffffffffffff16815260200190815260200160002060009054906101000a900460ff16611b00576040517f08c379a0000000000000000000000000000000000000000000000000000000008152600401611af790612c5a565b60405180910390fd5b600660009054906101000a900473ffffffffffffffffffffffffffffffffffffffff1673ffffffffffffffffffffffffffffffffffffffff166323b872dd600160009054906101000a900473ffffffffffffffffffffffffffffffffffffffff1633600b60003373ffffffffffffffffffffffffffffffffffffffff1673ffffffffffffffffffffffffffffffffffffffff168152602001908152602001600020546040518463ffffffff1660e01b8152600401611bc093929190612b95565b6020604051808303816000875af1158015611bdf573d6000803e3d6000fd5b505050506040513d601f19601f82011682018060405250810190611c039190612be1565b506000600b60003373ffffffffffffffffffffffffffffffffffffffff1673ffffffffffffffffffffffffffffffffffffffff168152602001908152602001600020819055506000600a60003373ffffffffffffffffffffffffffffffffffffffff1673ffffffffffffffffffffffffffffffffffffffff16815260200190815260200160002060006101000a81548160ff021916908315150217905550565b611cab611f51565b600660009054906101000a900473ffffffffffffffffffffffffffffffffffffffff1673ffffffffffffffffffffffffffffffffffffffff166323b872dd33600160009054906101000a900473ffffffffffffffffffffffffffffffffffffffff166012600a611d1b9190612af0565b600354611d289190612b3b565b6040518463ffffffff1660e01b8152600401611d4693929190612b95565b6020604051808303816000875af1158015611d65573d6000803e3d6000fd5b505050506040513d601f19601f82011682018060405250810190611d899190612be1565b50611d946008611faa565b600060096000611da46008611fc0565b81526020019081526020016000209050611dbe6008611fc0565b8160000181905550338160010160006101000a81548173ffffffffffffffffffffffffffffffffffffffff021916908373ffffffffffffffffffffffffffffffffffffffff16021790555081816002019081611e1a91906131ec565b5082816003019081611e2c91906131ec565b5060008160040160006101000a81548160ff02191690836002811115611e5557611e546122d9565b5b021790555060008160080160006101000a81548160ff02191690831515021790555060008160090181905550600081600a01819055503373ffffffffffffffffffffffffffffffffffffffff167f21db811397880d6ec73e47c51b9bda166cd7e8d3201ae52938a8600dde3e3a198385611ecf6008611fc0565b604051611ede939291906132be565b60405180910390a250611eef611fa0565b5050565b600b6020528060005260406000206000915090505481565b600160009054906101000a900473ffffffffffffffffffffffffffffffffffffffff1681565b600a6020528060005260406000206000915054906101000a900460ff1681565b600260005403611f96576040517f08c379a0000000000000000000000000000000000000000000000000000000008152600401611f8d9061334f565b60405180910390fd5b6002600081905550565b6001600081905550565b6001816000016000828254019250508190555050565b600081600001549050919050565b6000604051905090565b600080fd5b600080fd5b6000819050919050565b611ff581611fe2565b811461200057600080fd5b50565b60008135905061201281611fec565b92915050565b60006020828403121561202e5761202d611fd8565b5b600061203c84828501612003565b91505092915050565b61204e81611fe2565b82525050565b60006020820190506120696000830184612045565b92915050565b600073ffffffffffffffffffffffffffffffffffffffff82169050919050565b600061209a8261206f565b9050919050565b6120aa8161208f565b82525050565b60006020820190506120c560008301846120a1565b92915050565b60008115159050919050565b6120e0816120cb565b81146120eb57600080fd5b50565b6000813590506120fd816120d7565b92915050565b6000806040838503121561211a57612119611fd8565b5b600061212885828601612003565b9250506020612139858286016120ee565b9150509250929050565b6000819050919050565b600061216861216361215e8461206f565b612143565b61206f565b9050919050565b600061217a8261214d565b9050919050565b600061218c8261216f565b9050919050565b61219c81612181565b82525050565b60006020820190506121b76000830184612193565b92915050565b6121c68161208f565b81146121d157600080fd5b50565b6000813590506121e3816121bd565b92915050565b6000602082840312156121ff576121fe611fd8565b5b600061220d848285016121d4565b91505092915050565b61221f816120cb565b82525050565b600060208201905061223a6000830184612216565b92915050565b600081519050919050565b600082825260208201905092915050565b60005b8381101561227a57808201518184015260208101905061225f565b83811115612289576000848401525b50505050565b6000601f19601f8301169050919050565b60006122ab82612240565b6122b5818561224b565b93506122c581856020860161225c565b6122ce8161228f565b840191505092915050565b7f4e487b7100000000000000000000000000000000000000000000000000000000600052602160045260246000fd5b60038110612319576123186122d9565b5b50565b600081905061232a82612308565b919050565b600061233a8261231c565b9050919050565b61234a8161232f565b82525050565b600061010082019050612366600083018b612045565b612373602083018a6120a1565b818103604083015261238581896122a0565b9050818103606083015261239981886122a0565b90506123a86080830187612341565b6123b560a0830186612216565b6123c260c0830185612045565b6123cf60e0830184612045565b9998505050505050505050565b600080604083850312156123f3576123f2611fd8565b5b600061240185828601612003565b925050602061241285828601612003565b9150509250929050565b600060408201905061243160008301856120a1565b61243e6020830184612216565b9392505050565b600080fd5b600080fd5b7f4e487b7100000000000000000000000000000000000000000000000000000000600052604160045260246000fd5b6124878261228f565b810181811067ffffffffffffffff821117156124a6576124a561244f565b5b80604052505050565b60006124b9611fce565b90506124c5828261247e565b919050565b600067ffffffffffffffff8211156124e5576124e461244f565b5b6124ee8261228f565b9050602081019050919050565b82818337600083830152505050565b600061251d612518846124ca565b6124af565b9050828152602081018484840111156125395761253861244a565b5b6125448482856124fb565b509392505050565b600082601f83011261256157612560612445565b5b813561257184826020860161250a565b91505092915050565b6000806040838503121561259157612590611fd8565b5b600083013567ffffffffffffffff8111156125af576125ae611fdd565b5b6125bb8582860161254c565b925050602083013567ffffffffffffffff8111156125dc576125db611fdd565b5b6125e88582860161254c565b9150509250929050565b7f766f74696e6720696e2070726f67726573730000000000000000000000000000600082015250565b600061262860128361224b565b9150612633826125f2565b602082019050919050565b600060208201905081810360008301526126578161261b565b9050919050565b7f7265717565737420617070726f7665642f72656a656374656420616c7265616460008201527f7900000000000000000000000000000000000000000000000000000000000000602082015250565b60006126ba60218361224b565b91506126c58261265e565b604082019050919050565b600060208201905081810360008301526126e9816126ad565b9050919050565b7f4e487b7100000000000000000000000000000000000000000000000000000000600052603260045260246000fd5b7f4e487b7100000000000000000000000000000000000000000000000000000000600052601160045260246000fd5b600061275982611fe2565b91507fffffffffffffffffffffffffffffffffffffffffffffffffffffffffffffffff820361278b5761278a61271f565b5b600182019050919050565b7f4e487b7100000000000000000000000000000000000000000000000000000000600052601260045260246000fd5b60006127d082611fe2565b91506127db83611fe2565b9250826127eb576127ea612796565b5b828204905092915050565b600061280182611fe2565b915061280c83611fe2565b92508282101561281f5761281e61271f565b5b828203905092915050565b600060408201905061283f60008301856120a1565b61284c6020830184612045565b9392505050565b7f72657175657374207374696c6c2076616974696e6720666f7220617070726f7660008201527f616c000000000000000000000000000000000000000000000000000000000000602082015250565b60006128af60228361224b565b91506128ba82612853565b604082019050919050565b600060208201905081810360008301526128de816128a2565b9050919050565b7f796f75206e6f7420766f74656400000000000000000000000000000000000000600082015250565b600061291b600d8361224b565b9150612926826128e5565b602082019050919050565b6000602082019050818103600083015261294a8161290e565b9050919050565b7f616c726561647920636c61696d65640000000000000000000000000000000000600082015250565b6000612987600f8361224b565b915061299282612951565b602082019050919050565b600060208201905081810360008301526129b68161297a565b9050919050565b60008160011c9050919050565b6000808291508390505b6001851115612a14578086048111156129f0576129ef61271f565b5b60018516156129ff5780820291505b8081029050612a0d856129bd565b94506129d4565b94509492505050565b600082612a2d5760019050612ae9565b81612a3b5760009050612ae9565b8160018114612a515760028114612a5b57612a8a565b6001915050612ae9565b60ff841115612a6d57612a6c61271f565b5b8360020a915084821115612a8457612a8361271f565b5b50612ae9565b5060208310610133831016604e8410600b8410161715612abf5782820a905083811115612aba57612ab961271f565b5b612ae9565b612acc84848460016129ca565b92509050818404811115612ae357612ae261271f565b5b81810290505b9392505050565b6000612afb82611fe2565b9150612b0683611fe2565b9250612b337fffffffffffffffffffffffffffffffffffffffffffffffffffffffffffffffff8484612a1d565b905092915050565b6000612b4682611fe2565b9150612b5183611fe2565b9250817fffffffffffffffffffffffffffffffffffffffffffffffffffffffffffffffff0483118215151615612b8a57612b8961271f565b5b828202905092915050565b6000606082019050612baa60008301866120a1565b612bb760208301856120a1565b612bc46040830184612045565b949350505050565b600081519050612bdb816120d7565b92915050565b600060208284031215612bf757612bf6611fd8565b5b6000612c0584828501612bcc565b91505092915050565b7f796f7520617265206e6f74206120766f74657200000000000000000000000000600082015250565b6000612c4460138361224b565b9150612c4f82612c0e565b602082019050919050565b60006020820190508181036000830152612c7381612c37565b9050919050565b7f796f7520616c726561647920766f746564000000000000000000000000000000600082015250565b6000612cb060118361224b565b9150612cbb82612c7a565b602082019050919050565b60006020820190508181036000830152612cdf81612ca3565b9050919050565b7f6361736520617070726f7665642f72656a656374656420616c72656164790000600082015250565b6000612d1c601e8361224b565b9150612d2782612ce6565b602082019050919050565b60006020820190508181036000830152612d4b81612d0f565b9050919050565b7f6361736520657870697265640000000000000000000000000000000000000000600082015250565b6000612d88600c8361224b565b9150612d9382612d52565b602082019050919050565b60006020820190508181036000830152612db781612d7b565b9050919050565b7f726571756972656420616d6f756e742073686f756c6420626520706f7369746960008201527f7665000000000000000000000000000000000000000000000000000000000000602082015250565b6000612e1a60228361224b565b9150612e2582612dbe565b604082019050919050565b60006020820190508181036000830152612e4981612e0d565b9050919050565b7f6e6f74206861766520656e6f7567682062616c616e6365000000000000000000600082015250565b6000612e8660178361224b565b9150612e9182612e50565b602082019050919050565b60006020820190508181036000830152612eb581612e79565b9050919050565b7f4e487b7100000000000000000000000000000000000000000000000000000000600052602260045260246000fd5b60006002820490506001821680612f0357607f821691505b602082108103612f1657612f15612ebc565b5b50919050565b7f616c7265616479206120766f7465720000000000000000000000000000000000600082015250565b6000612f52600f8361224b565b9150612f5d82612f1c565b602082019050919050565b60006020820190508181036000830152612f8181612f45565b9050919050565b7f7374616b696e6720616d74206973206e6f7420656e6f75676800000000000000600082015250565b6000612fbe60198361224b565b9150612fc982612f88565b602082019050919050565b60006020820190508181036000830152612fed81612fb1565b9050919050565b6000612fff82611fe2565b915061300a83611fe2565b9250827fffffffffffffffffffffffffffffffffffffffffffffffffffffffffffffffff0382111561303f5761303e61271f565b5b828201905092915050565b60008190508160005260206000209050919050565b60006020601f8301049050919050565b600082821b905092915050565b6000600883026130ac7fffffffffffffffffffffffffffffffffffffffffffffffffffffffffffffffff8261306f565b6130b6868361306f565b95508019841693508086168417925050509392505050565b60006130e96130e46130df84611fe2565b612143565b611fe2565b9050919050565b6000819050919050565b613103836130ce565b61311761310f826130f0565b84845461307c565b825550505050565b600090565b61312c61311f565b6131378184846130fa565b505050565b5b8181101561315b57613150600082613124565b60018101905061313d565b5050565b601f8211156131a0576131718161304a565b61317a8461305f565b81016020851015613189578190505b61319d6131958561305f565b83018261313c565b50505b505050565b600082821c905092915050565b60006131c3600019846008026131a5565b1980831691505092915050565b60006131dc83836131b2565b9150826002028217905092915050565b6131f582612240565b67ffffffffffffffff81111561320e5761320d61244f565b5b6132188254612eeb565b61322382828561315f565b600060209050601f8311600181146132565760008415613244578287015190505b61324e85826131d0565b8655506132b6565b601f1984166132648661304a565b60005b8281101561328c57848901518255600182019150602085019450602081019050613267565b868310156132a957848901516132a5601f8916826131b2565b8355505b6001600288020188555050505b505050505050565b600060608201905081810360008301526132d881866122a0565b905081810360208301526132ec81856122a0565b90506132fb6040830184612045565b949350505050565b7f5265656e7472616e637947756172643a207265656e7472616e742063616c6c00600082015250565b6000613339601f8361224b565b915061334482613303565b602082019050919050565b600060208201905081810360008301526133688161332c565b905091905056fea26469706673582212200d88d3e499ee6e1402816215effa4b2ed6ff396cc018ee76e8cea5099f2bac9b64736f6c634300080f0033",
  "linkReferences": {},
  "deployedLinkReferences": {}
}